{
  "_format": "hh-sol-artifact-1",
  "contractName": "WaferRegistry",
  "sourceName": "contracts/WaferRegistry.sol",
  "abi": [
    {
      "inputs": [],
      "stateMutability": "nonpayable",
      "type": "constructor"
    },
    {
      "inputs": [
        {
          "internalType": "address",
          "name": "sender",
          "type": "address"
        },
        {
          "internalType": "uint256",
          "name": "tokenId",
          "type": "uint256"
        },
        {
          "internalType": "address",
          "name": "owner",
          "type": "address"
        }
      ],
      "name": "ERC721IncorrectOwner",
      "type": "error"
    },
    {
      "inputs": [
        {
          "internalType": "address",
          "name": "operator",
          "type": "address"
        },
        {
          "internalType": "uint256",
          "name": "tokenId",
          "type": "uint256"
        }
      ],
      "name": "ERC721InsufficientApproval",
      "type": "error"
    },
    {
      "inputs": [
        {
          "internalType": "address",
          "name": "approver",
          "type": "address"
        }
      ],
      "name": "ERC721InvalidApprover",
      "type": "error"
    },
    {
      "inputs": [
        {
          "internalType": "address",
          "name": "operator",
          "type": "address"
        }
      ],
      "name": "ERC721InvalidOperator",
      "type": "error"
    },
    {
      "inputs": [
        {
          "internalType": "address",
          "name": "owner",
          "type": "address"
        }
      ],
      "name": "ERC721InvalidOwner",
      "type": "error"
    },
    {
      "inputs": [
        {
          "internalType": "address",
          "name": "receiver",
          "type": "address"
        }
      ],
      "name": "ERC721InvalidReceiver",
      "type": "error"
    },
    {
      "inputs": [
        {
          "internalType": "address",
          "name": "sender",
          "type": "address"
        }
      ],
      "name": "ERC721InvalidSender",
      "type": "error"
    },
    {
      "inputs": [
        {
          "internalType": "uint256",
          "name": "tokenId",
          "type": "uint256"
        }
      ],
      "name": "ERC721NonexistentToken",
      "type": "error"
    },
    {
      "inputs": [
        {
          "internalType": "address",
          "name": "owner",
          "type": "address"
        }
      ],
      "name": "OwnableInvalidOwner",
      "type": "error"
    },
    {
      "inputs": [
        {
          "internalType": "address",
          "name": "account",
          "type": "address"
        }
      ],
      "name": "OwnableUnauthorizedAccount",
      "type": "error"
    },
    {
      "anonymous": false,
      "inputs": [
        {
          "indexed": true,
          "internalType": "address",
          "name": "owner",
          "type": "address"
        },
        {
          "indexed": true,
          "internalType": "address",
          "name": "approved",
          "type": "address"
        },
        {
          "indexed": true,
          "internalType": "uint256",
          "name": "tokenId",
          "type": "uint256"
        }
      ],
      "name": "Approval",
      "type": "event"
    },
    {
      "anonymous": false,
      "inputs": [
        {
          "indexed": true,
          "internalType": "address",
          "name": "owner",
          "type": "address"
        },
        {
          "indexed": true,
          "internalType": "address",
          "name": "operator",
          "type": "address"
        },
        {
          "indexed": false,
          "internalType": "bool",
          "name": "approved",
          "type": "bool"
        }
      ],
      "name": "ApprovalForAll",
      "type": "event"
    },
    {
      "anonymous": false,
      "inputs": [
        {
          "indexed": false,
          "internalType": "uint256",
          "name": "_fromTokenId",
          "type": "uint256"
        },
        {
          "indexed": false,
          "internalType": "uint256",
          "name": "_toTokenId",
          "type": "uint256"
        }
      ],
      "name": "BatchMetadataUpdate",
      "type": "event"
    },
    {
      "anonymous": false,
      "inputs": [
        {
          "indexed": true,
          "internalType": "uint256",
          "name": "tokenId",
          "type": "uint256"
        },
        {
          "indexed": false,
          "internalType": "string",
          "name": "defectType",
          "type": "string"
        },
        {
          "indexed": false,
          "internalType": "string",
          "name": "dataHash",
          "type": "string"
        },
        {
          "indexed": false,
          "internalType": "uint256",
          "name": "timestamp",
          "type": "uint256"
        }
      ],
      "name": "DiagnosisLogged",
      "type": "event"
    },
    {
      "anonymous": false,
      "inputs": [
        {
          "indexed": false,
          "internalType": "uint256",
          "name": "_tokenId",
          "type": "uint256"
        }
      ],
      "name": "MetadataUpdate",
      "type": "event"
    },
    {
      "anonymous": false,
      "inputs": [
        {
          "indexed": true,
          "internalType": "address",
          "name": "previousOwner",
          "type": "address"
        },
        {
          "indexed": true,
          "internalType": "address",
          "name": "newOwner",
          "type": "address"
        }
      ],
      "name": "OwnershipTransferred",
      "type": "event"
    },
    {
      "anonymous": false,
      "inputs": [
        {
          "indexed": true,
          "internalType": "address",
          "name": "from",
          "type": "address"
        },
        {
          "indexed": true,
          "internalType": "address",
          "name": "to",
          "type": "address"
        },
        {
          "indexed": true,
          "internalType": "uint256",
          "name": "tokenId",
          "type": "uint256"
        }
      ],
      "name": "Transfer",
      "type": "event"
    },
    {
      "anonymous": false,
      "inputs": [
        {
          "indexed": true,
          "internalType": "uint256",
          "name": "tokenId",
          "type": "uint256"
        },
        {
          "indexed": true,
          "internalType": "address",
          "name": "to",
          "type": "address"
        },
        {
          "indexed": false,
          "internalType": "string",
          "name": "tokenURI",
          "type": "string"
        }
      ],
      "name": "WaferMinted",
      "type": "event"
    },
    {
      "inputs": [
        {
          "internalType": "address",
          "name": "to",
          "type": "address"
        },
        {
          "internalType": "uint256",
          "name": "tokenId",
          "type": "uint256"
        }
      ],
      "name": "approve",
      "outputs": [],
      "stateMutability": "nonpayable",
      "type": "function"
    },
    {
      "inputs": [
        {
          "internalType": "address",
          "name": "owner",
          "type": "address"
        }
      ],
      "name": "balanceOf",
      "outputs": [
        {
          "internalType": "uint256",
          "name": "",
          "type": "uint256"
        }
      ],
      "stateMutability": "view",
      "type": "function"
    },
    {
      "inputs": [
        {
          "internalType": "uint256",
          "name": "tokenId",
          "type": "uint256"
        }
      ],
      "name": "getApproved",
      "outputs": [
        {
          "internalType": "address",
          "name": "",
          "type": "address"
        }
      ],
      "stateMutability": "view",
      "type": "function"
    },
    {
      "inputs": [
        {
          "internalType": "uint256",
          "name": "tokenId",
          "type": "uint256"
        }
      ],
      "name": "getDiagnosis",
      "outputs": [
        {
          "internalType": "string",
          "name": "defectType",
          "type": "string"
        },
        {
          "internalType": "string",
          "name": "dataHash",
          "type": "string"
        },
        {
          "internalType": "uint256",
          "name": "timestamp",
          "type": "uint256"
        }
      ],
      "stateMutability": "view",
      "type": "function"
    },
    {
      "inputs": [
        {
          "internalType": "address",
          "name": "owner",
          "type": "address"
        },
        {
          "internalType": "address",
          "name": "operator",
          "type": "address"
        }
      ],
      "name": "isApprovedForAll",
      "outputs": [
        {
          "internalType": "bool",
          "name": "",
          "type": "bool"
        }
      ],
      "stateMutability": "view",
      "type": "function"
    },
    {
      "inputs": [
        {
          "internalType": "uint256",
          "name": "tokenId",
          "type": "uint256"
        },
        {
          "internalType": "string",
          "name": "defectType",
          "type": "string"
        },
        {
          "internalType": "string",
          "name": "dataHash",
          "type": "string"
        }
      ],
      "name": "logDiagnosis",
      "outputs": [],
      "stateMutability": "nonpayable",
      "type": "function"
    },
    {
      "inputs": [
        {
          "internalType": "address",
          "name": "to",
          "type": "address"
        },
        {
          "internalType": "string",
          "name": "uri",
          "type": "string"
        }
      ],
      "name": "mintWafer",
      "outputs": [
        {
          "internalType": "uint256",
          "name": "",
          "type": "uint256"
        }
      ],
      "stateMutability": "nonpayable",
      "type": "function"
    },
    {
      "inputs": [],
      "name": "name",
      "outputs": [
        {
          "internalType": "string",
          "name": "",
          "type": "string"
        }
      ],
      "stateMutability": "view",
      "type": "function"
    },
    {
      "inputs": [],
      "name": "owner",
      "outputs": [
        {
          "internalType": "address",
          "name": "",
          "type": "address"
        }
      ],
      "stateMutability": "view",
      "type": "function"
    },
    {
      "inputs": [
        {
          "internalType": "uint256",
          "name": "tokenId",
          "type": "uint256"
        }
      ],
      "name": "ownerOf",
      "outputs": [
        {
          "internalType": "address",
          "name": "",
          "type": "address"
        }
      ],
      "stateMutability": "view",
      "type": "function"
    },
    {
      "inputs": [],
      "name": "renounceOwnership",
      "outputs": [],
      "stateMutability": "nonpayable",
      "type": "function"
    },
    {
      "inputs": [
        {
          "internalType": "address",
          "name": "from",
          "type": "address"
        },
        {
          "internalType": "address",
          "name": "to",
          "type": "address"
        },
        {
          "internalType": "uint256",
          "name": "tokenId",
          "type": "uint256"
        }
      ],
      "name": "safeTransferFrom",
      "outputs": [],
      "stateMutability": "nonpayable",
      "type": "function"
    },
    {
      "inputs": [
        {
          "internalType": "address",
          "name": "from",
          "type": "address"
        },
        {
          "internalType": "address",
          "name": "to",
          "type": "address"
        },
        {
          "internalType": "uint256",
          "name": "tokenId",
          "type": "uint256"
        },
        {
          "internalType": "bytes",
          "name": "data",
          "type": "bytes"
        }
      ],
      "name": "safeTransferFrom",
      "outputs": [],
      "stateMutability": "nonpayable",
      "type": "function"
    },
    {
      "inputs": [
        {
          "internalType": "address",
          "name": "operator",
          "type": "address"
        },
        {
          "internalType": "bool",
          "name": "approved",
          "type": "bool"
        }
      ],
      "name": "setApprovalForAll",
      "outputs": [],
      "stateMutability": "nonpayable",
      "type": "function"
    },
    {
      "inputs": [
        {
          "internalType": "bytes4",
          "name": "interfaceId",
          "type": "bytes4"
        }
      ],
      "name": "supportsInterface",
      "outputs": [
        {
          "internalType": "bool",
          "name": "",
          "type": "bool"
        }
      ],
      "stateMutability": "view",
      "type": "function"
    },
    {
      "inputs": [],
      "name": "symbol",
      "outputs": [
        {
          "internalType": "string",
          "name": "",
          "type": "string"
        }
      ],
      "stateMutability": "view",
      "type": "function"
    },
    {
      "inputs": [
        {
          "internalType": "uint256",
          "name": "tokenId",
          "type": "uint256"
        }
      ],
      "name": "tokenURI",
      "outputs": [
        {
          "internalType": "string",
          "name": "",
          "type": "string"
        }
      ],
      "stateMutability": "view",
      "type": "function"
    },
    {
      "inputs": [],
      "name": "totalMinted",
      "outputs": [
        {
          "internalType": "uint256",
          "name": "",
          "type": "uint256"
        }
      ],
      "stateMutability": "view",
      "type": "function"
    },
    {
      "inputs": [
        {
          "internalType": "address",
          "name": "from",
          "type": "address"
        },
        {
          "internalType": "address",
          "name": "to",
          "type": "address"
        },
        {
          "internalType": "uint256",
          "name": "tokenId",
          "type": "uint256"
        }
      ],
      "name": "transferFrom",
      "outputs": [],
      "stateMutability": "nonpayable",
      "type": "function"
    },
    {
      "inputs": [
        {
          "internalType": "address",
          "name": "newOwner",
          "type": "address"
        }
      ],
      "name": "transferOwnership",
      "outputs": [],
      "stateMutability": "nonpayable",
      "type": "function"
    }
  ],
  "bytecode": "0x60806040526001600855348015610014575f5ffd5b50336040518060400160405280601381526020017f5761666572446566656374526567697374727900000000000000000000000000815250604051806040016040528060058152602001642ba0a322a960d91b815250815f908161007891906101ad565b50600161008582826101ad565b5050506001600160a01b0381166100b557604051631e4fbdf760e01b81525f600482015260240160405180910390fd5b6100be816100c4565b50610267565b600780546001600160a01b038381166001600160a01b0319831681179093556040519116919082907f8be0079c531659141344cd1fd0a4f28419497f9722a3daafe3b4186f6b6457e0905f90a35050565b634e487b7160e01b5f52604160045260245ffd5b600181811c9082168061013d57607f821691505b60208210810361015b57634e487b7160e01b5f52602260045260245ffd5b50919050565b601f8211156101a857805f5260205f20601f840160051c810160208510156101865750805b601f840160051c820191505b818110156101a5575f8155600101610192565b50505b505050565b81516001600160401b038111156101c6576101c6610115565b6101da816101d48454610129565b84610161565b6020601f82116001811461020c575f83156101f55750848201515b5f19600385901b1c1916600184901b1784556101a5565b5f84815260208120601f198516915b8281101561023b578785015182556020948501946001909201910161021b565b508482101561025857868401515f19600387901b60f8161c191681555b50505050600190811b01905550565b61185c806102745f395ff3fe608060405234801561000f575f5ffd5b5060043610610127575f3560e01c80638d70f8a0116100a9578063b88d4fde1161006e578063b88d4fde14610273578063c87b56dd14610286578063c9cd0f3114610299578063e985e9c5146102ac578063f2fde38b146102bf575f5ffd5b80638d70f8a01461022c5780638da5cb5b1461023f57806395d89b4114610250578063a22cb46514610258578063a2309ff81461026b575f5ffd5b806342842e0e116100ef57806342842e0e146101bb5780636352211e146101ce57806370a08231146101e1578063715018a61461020257806373c440db1461020a575f5ffd5b806301ffc9a71461012b57806306fdde0314610153578063081812fc14610168578063095ea7b31461019357806323b872dd146101a8575b5f5ffd5b61013e6101393660046112af565b6102d2565b60405190151581526020015b60405180910390f35b61015b6102fc565b60405161014a91906112f8565b61017b61017636600461130a565b61038b565b6040516001600160a01b03909116815260200161014a565b6101a66101a136600461133c565b6103b2565b005b6101a66101b6366004611364565b6103c1565b6101a66101c9366004611364565b61044f565b61017b6101dc36600461130a565b61046e565b6101f46101ef36600461139e565b610478565b60405190815260200161014a565b6101a66104bd565b61021d61021836600461130a565b6104d0565b60405161014a939291906113b7565b6101a661023a366004611495565b6106aa565b6007546001600160a01b031661017b565b61015b6107d9565b6101a6610266366004611502565b6107e8565b6101f46107f3565b6101a661028136600461153b565b610808565b61015b61029436600461130a565b610820565b6101f46102a73660046115b2565b6108a1565b61013e6102ba3660046115fd565b61091d565b6101a66102cd36600461139e565b61094a565b5f6001600160e01b03198216632483248360e11b14806102f657506102f682610987565b92915050565b60605f805461030a9061162e565b80601f01602080910402602001604051908101604052809291908181526020018280546103369061162e565b80156103815780601f1061035857610100808354040283529160200191610381565b820191905f5260205f20905b81548152906001019060200180831161036457829003601f168201915b5050505050905090565b5f610395826109d6565b505f828152600460205260409020546001600160a01b03166102f6565b6103bd828233610a0e565b5050565b6001600160a01b0382166103ef57604051633250574960e11b81525f60048201526024015b60405180910390fd5b5f6103fb838333610a1b565b9050836001600160a01b0316816001600160a01b031614610449576040516364283d7b60e01b81526001600160a01b03808616600483015260248201849052821660448201526064016103e6565b50505050565b61046983838360405180602001604052805f815250610808565b505050565b5f6102f6826109d6565b5f6001600160a01b0382166104a2576040516322718ad960e21b81525f60048201526024016103e6565b506001600160a01b03165f9081526003602052604090205490565b6104c5610b0d565b6104ce5f610b3a565b565b5f81815260096020526040812060030154606091829160ff166105405760405162461bcd60e51b815260206004820152602260248201527f576166657252656769737472793a206e6f20646961676e6f736973206c6f6767604482015261195960f21b60648201526084016103e6565b5f848152600960205260408082208151608081019092528054829082906105669061162e565b80601f01602080910402602001604051908101604052809291908181526020018280546105929061162e565b80156105dd5780601f106105b4576101008083540402835291602001916105dd565b820191905f5260205f20905b8154815290600101906020018083116105c057829003601f168201915b505050505081526020016001820180546105f69061162e565b80601f01602080910402602001604051908101604052809291908181526020018280546106229061162e565b801561066d5780601f106106445761010080835404028352916020019161066d565b820191905f5260205f20905b81548152906001019060200180831161065057829003601f168201915b5050509183525050600282015460208083019190915260039092015460ff1615156040918201528251918301519201519097919650945092505050565b6106b2610b0d565b5f838152600260205260409020546001600160a01b03166107215760405162461bcd60e51b815260206004820152602360248201527f576166657252656769737472793a20746f6b656e20646f6573206e6f742065786044820152621a5cdd60ea1b60648201526084016103e6565b6040805160808101825283815260208082018490524282840152600160608301525f8681526009909152919091208151819061075d90826116aa565b506020820151600182019061077290826116aa565b5060408281015160028301556060909201516003909101805460ff19169115159190911790555183907f1048839ff89ff03fe4c05a292eff8eb1d0a357e92fb767b14a976155fb7ad288906107cc908590859042906113b7565b60405180910390a2505050565b60606001805461030a9061162e565b6103bd338383610b8b565b5f60016008546108039190611779565b905090565b6108138484846103c1565b6104493385858585610c52565b606061082b826109d6565b505f61084160408051602081019091525f815290565b90505f61084d84610d7a565b905081515f0361085e579392505050565b8051156108905781816040516020016108789291906117a3565b60405160208183030381529060405292505050919050565b61089984610e19565b949350505050565b5f6108aa610b0d565b600880549081905f6108bb836117b7565b91905055506108ca8482610e8a565b6108d48184610ea3565b836001600160a01b0316817fc65e61069d85bc06a916e829e20d2be3f645907730efb83f7b236a486f69d1038560405161090e91906112f8565b60405180910390a39392505050565b6001600160a01b039182165f90815260056020908152604080832093909416825291909152205460ff1690565b610952610b0d565b6001600160a01b03811661097b57604051631e4fbdf760e01b81525f60048201526024016103e6565b61098481610b3a565b50565b5f6001600160e01b031982166380ac58cd60e01b14806109b757506001600160e01b03198216635b5e139f60e01b145b806102f657506301ffc9a760e01b6001600160e01b03198316146102f6565b5f818152600260205260408120546001600160a01b0316806102f657604051637e27328960e01b8152600481018490526024016103e6565b6104698383836001610ef2565b5f828152600260205260408120546001600160a01b0390811690831615610a4757610a47818486610ff6565b6001600160a01b03811615610a8157610a625f855f5f610ef2565b6001600160a01b0381165f90815260036020526040902080545f190190555b6001600160a01b03851615610aaf576001600160a01b0385165f908152600360205260409020805460010190555b5f8481526002602052604080822080546001600160a01b0319166001600160a01b0389811691821790925591518793918516917fddf252ad1be2c89b69c2b068fc378daa952ba7f163c4a11628f55a4df523b3ef91a4949350505050565b6007546001600160a01b031633146104ce5760405163118cdaa760e01b81523360048201526024016103e6565b600780546001600160a01b038381166001600160a01b0319831681179093556040519116919082907f8be0079c531659141344cd1fd0a4f28419497f9722a3daafe3b4186f6b6457e0905f90a35050565b6001600160a01b038316610bb45760405163a9fbf51f60e01b81525f60048201526024016103e6565b6001600160a01b038216610be657604051630b61174360e31b81526001600160a01b03831660048201526024016103e6565b6001600160a01b038381165f81815260056020908152604080832094871680845294825291829020805460ff191686151590811790915591519182527f17307eab39ab6107e8899845ad3d59bd9653f200f220920489ca2b5937696c31910160405180910390a3505050565b6001600160a01b0383163b15610d7357604051630a85bd0160e11b81526001600160a01b0384169063150b7a0290610c949088908890879087906004016117cf565b6020604051808303815f875af1925050508015610cce575060408051601f3d908101601f19168201909252610ccb9181019061180b565b60015b610d35573d808015610cfb576040519150601f19603f3d011682016040523d82523d5f602084013e610d00565b606091505b5080515f03610d2d57604051633250574960e11b81526001600160a01b03851660048201526024016103e6565b805160208201fd5b6001600160e01b03198116630a85bd0160e11b14610d7157604051633250574960e11b81526001600160a01b03851660048201526024016103e6565b505b5050505050565b5f818152600660205260409020805460609190610d969061162e565b80601f0160208091040260200160405190810160405280929190818152602001828054610dc29061162e565b8015610e0d5780601f10610de457610100808354040283529160200191610e0d565b820191905f5260205f20905b815481529060010190602001808311610df057829003601f168201915b50505050509050919050565b6060610e24826109d6565b505f610e3a60408051602081019091525f815290565b90505f815111610e585760405180602001604052805f815250610e83565b80610e628461105a565b604051602001610e739291906117a3565b6040516020818303038152906040525b9392505050565b6103bd828260405180602001604052805f8152506110ea565b5f828152600660205260409020610eba82826116aa565b506040518281527ff8e1a15aba9398e019f0b49df1a4fde98ee17ae345cb5f6b5e2c27f5033e8ce79060200160405180910390a15050565b8080610f0657506001600160a01b03821615155b15610fc7575f610f15846109d6565b90506001600160a01b03831615801590610f415750826001600160a01b0316816001600160a01b031614155b8015610f545750610f52818461091d565b155b15610f7d5760405163a9fbf51f60e01b81526001600160a01b03841660048201526024016103e6565b8115610fc55783856001600160a01b0316826001600160a01b03167f8c5be1e5ebec7d5bd14f71427d1e84f3dd0314c0f7b2291e5b200ac8c7c3b92560405160405180910390a45b505b50505f90815260046020526040902080546001600160a01b0319166001600160a01b0392909216919091179055565b611001838383611101565b610469576001600160a01b03831661102f57604051637e27328960e01b8152600481018290526024016103e6565b60405163177e802f60e01b81526001600160a01b0383166004820152602481018290526044016103e6565b60605f61106683611162565b60010190505f8167ffffffffffffffff811115611085576110856113ec565b6040519080825280601f01601f1916602001820160405280156110af576020820181803683370190505b5090508181016020015b5f19016f181899199a1a9b1b9c1cb0b131b232b360811b600a86061a8153600a85049450846110b957509392505050565b6110f48383611239565b610469335f858585610c52565b5f6001600160a01b038316158015906108995750826001600160a01b0316846001600160a01b0316148061113a575061113a848461091d565b806108995750505f908152600460205260409020546001600160a01b03908116911614919050565b5f8072184f03e93ff9f4daa797ed6e38ed64bf6a1f0160401b83106111a05772184f03e93ff9f4daa797ed6e38ed64bf6a1f0160401b830492506040015b6d04ee2d6d415b85acef810000000083106111cc576d04ee2d6d415b85acef8100000000830492506020015b662386f26fc1000083106111ea57662386f26fc10000830492506010015b6305f5e1008310611202576305f5e100830492506008015b612710831061121657612710830492506004015b60648310611228576064830492506002015b600a83106102f65760010192915050565b6001600160a01b03821661126257604051633250574960e11b81525f60048201526024016103e6565b5f61126e83835f610a1b565b90506001600160a01b03811615610469576040516339e3563760e11b81525f60048201526024016103e6565b6001600160e01b031981168114610984575f5ffd5b5f602082840312156112bf575f5ffd5b8135610e838161129a565b5f81518084528060208401602086015e5f602082860101526020601f19601f83011685010191505092915050565b602081525f610e8360208301846112ca565b5f6020828403121561131a575f5ffd5b5035919050565b80356001600160a01b0381168114611337575f5ffd5b919050565b5f5f6040838503121561134d575f5ffd5b61135683611321565b946020939093013593505050565b5f5f5f60608486031215611376575f5ffd5b61137f84611321565b925061138d60208501611321565b929592945050506040919091013590565b5f602082840312156113ae575f5ffd5b610e8382611321565b606081525f6113c960608301866112ca565b82810360208401526113db81866112ca565b915050826040830152949350505050565b634e487b7160e01b5f52604160045260245ffd5b5f5f67ffffffffffffffff84111561141a5761141a6113ec565b50604051601f19601f85018116603f0116810181811067ffffffffffffffff82111715611449576114496113ec565b604052838152905080828401851015611460575f5ffd5b838360208301375f60208583010152509392505050565b5f82601f830112611486575f5ffd5b610e8383833560208501611400565b5f5f5f606084860312156114a7575f5ffd5b83359250602084013567ffffffffffffffff8111156114c4575f5ffd5b6114d086828701611477565b925050604084013567ffffffffffffffff8111156114ec575f5ffd5b6114f886828701611477565b9150509250925092565b5f5f60408385031215611513575f5ffd5b61151c83611321565b915060208301358015158114611530575f5ffd5b809150509250929050565b5f5f5f5f6080858703121561154e575f5ffd5b61155785611321565b935061156560208601611321565b925060408501359150606085013567ffffffffffffffff811115611587575f5ffd5b8501601f81018713611597575f5ffd5b6115a687823560208401611400565b91505092959194509250565b5f5f604083850312156115c3575f5ffd5b6115cc83611321565b9150602083013567ffffffffffffffff8111156115e7575f5ffd5b6115f385828601611477565b9150509250929050565b5f5f6040838503121561160e575f5ffd5b61161783611321565b915061162560208401611321565b90509250929050565b600181811c9082168061164257607f821691505b60208210810361166057634e487b7160e01b5f52602260045260245ffd5b50919050565b601f82111561046957805f5260205f20601f840160051c8101602085101561168b5750805b601f840160051c820191505b81811015610d73575f8155600101611697565b815167ffffffffffffffff8111156116c4576116c46113ec565b6116d8816116d2845461162e565b84611666565b6020601f82116001811461170a575f83156116f35750848201515b5f19600385901b1c1916600184901b178455610d73565b5f84815260208120601f198516915b828110156117395787850151825560209485019460019092019101611719565b508482101561175657868401515f19600387901b60f8161c191681555b50505050600190811b01905550565b634e487b7160e01b5f52601160045260245ffd5b818103818111156102f6576102f6611765565b5f81518060208401855e5f93019283525090919050565b5f6108996117b1838661178c565b8461178c565b5f600182016117c8576117c8611765565b5060010190565b6001600160a01b03858116825284166020820152604081018390526080606082018190525f90611801908301846112ca565b9695505050505050565b5f6020828403121561181b575f5ffd5b8151610e838161129a56fea2646970667358221220c27afa9a3ffd08a502f9375429acab851b91023ba6a441fce0e27193e153ed4164736f6c634300081c0033",
  "linkReferences": {},
  "deployedLinkReferences": {}
}